{
  "contractName": "CreatorCashout",
  "abi": [
    {
      "inputs": [
        {
          "internalType": "address",
          "name": "_lendingPoolAddressesProvider",
          "type": "address"
        }
      ],
      "stateMutability": "nonpayable",
      "type": "constructor"
    },
    {
      "anonymous": false,
      "inputs": [
        {
          "indexed": false,
          "internalType": "bool",
          "name": "success",
          "type": "bool"
        }
      ],
      "name": "CashoutCompleted",
      "type": "event"
    },
    {
      "inputs": [
        {
          "internalType": "uint256",
          "name": "amount",
          "type": "uint256"
        },
        {
          "internalType": "address",
          "name": "to",
          "type": "address"
        }
      ],
      "name": "cashout",
      "outputs": [],
      "stateMutability": "nonpayable",
      "type": "function"
    }
  ],
  "bytecode": "0x608060405273e22da380ee6b445bb8273c81944adeb6e8450422600260006101000a81548173ffffffffffffffffffffffffffffffffffffffff021916908373ffffffffffffffffffffffffffffffffffffffff1602179055506000600260146101000a81548161ffff021916908361ffff16021790555034801561008357600080fd5b506040516103e93803806103e9833981810160405260208110156100a657600080fd5b8101908080519060200190929190505050806000806101000a81548173ffffffffffffffffffffffffffffffffffffffff021916908373ffffffffffffffffffffffffffffffffffffffff16021790555060008054906101000a900473ffffffffffffffffffffffffffffffffffffffff1673ffffffffffffffffffffffffffffffffffffffff16630261bf8b6040518163ffffffff1660e01b815260040160206040518083038186803b15801561015d57600080fd5b505afa158015610171573d6000803e3d6000fd5b505050506040513d602081101561018757600080fd5b8101908080519060200190929190505050600160006101000a81548173ffffffffffffffffffffffffffffffffffffffff021916908373ffffffffffffffffffffffffffffffffffffffff16021790555050610201806101e86000396000f3fe608060405234801561001057600080fd5b506004361061002b5760003560e01c806332fda3bb14610030575b600080fd5b61007c6004803603604081101561004657600080fd5b8101908080359060200190929190803573ffffffffffffffffffffffffffffffffffffffff16906020019092919050505061007e565b005b600160009054906101000a900473ffffffffffffffffffffffffffffffffffffffff1673ffffffffffffffffffffffffffffffffffffffff166369328dec600260009054906101000a900473ffffffffffffffffffffffffffffffffffffffff1684846040518463ffffffff1660e01b8152600401808473ffffffffffffffffffffffffffffffffffffffff1681526020018381526020018273ffffffffffffffffffffffffffffffffffffffff1681526020019350505050602060405180830381600087803b15801561015157600080fd5b505af1158015610165573d6000803e3d6000fd5b505050506040513d602081101561017b57600080fd5b8101908080519060200190929190505050507ff768231ef417d35ade1c98d296669e9c9329e4abe5f1940a28166b3675738712600160405180821515815260200191505060405180910390a1505056fea2646970667358221220dcc95a32a16b5799744416afd513dd64dbc2535659f4727eb6005041014e989464736f6c634300060c0033",
  "immutableReferences": {},
  "source": "// SPDX-License-Identifier: MIT\npragma solidity ^0.6.0;\n\nimport \"@openzeppelin/contracts/token/ERC20/ERC20.sol\";\n\nimport \"@aave/protocol-v2/contracts/interfaces/ILendingPool.sol\";\nimport \"@aave/protocol-v2/contracts/interfaces/ILendingPoolAddressesProvider.sol\";\n\ncontract CreatorCashout {\n    ILendingPoolAddressesProvider addressesProvider;\n    ILendingPool lendingPool;\n\n    // USDC Address on Kovan\n    ERC20 usdc = ERC20(0xe22da380ee6B445bb8273C81944ADEB6E8450422);\n    // Referral program for AAVE (https://docs.aave.com/developers/referral-program)\n    uint16 referralCode = 0;\n\n    // Constructor takes the address of the AAVE protocol addresses provider. Should not change once deployed.\n    // (https://docs.aave.com/developers/deployed-contracts)\n    constructor(address _lendingPoolAddressesProvider) public {\n        addressesProvider = ILendingPoolAddressesProvider(\n            _lendingPoolAddressesProvider\n        );\n        lendingPool = ILendingPool(addressesProvider.getLendingPool());\n    }\n\n    // Signals to the front end whether or not the donation was successful\n    event CashoutCompleted(bool success);\n\n    function cashout(uint256 amount, address to) external {\n        // Actually deposit into the lendingPool on behalf of the creator\n        lendingPool.withdraw(address(usdc), amount, to);\n\n        emit CashoutCompleted(true);\n    }\n}\n",
  "sourcePath": "/Users/prasanna/Documents/code/opensource/blossym/contracts/CreatorCashout.sol",
  "compiler": {
    "name": "solc",
    "version": "0.6.12+commit.27d51765.Emscripten.clang"
  },
  "schemaVersion": "3.4.4",
  "updatedAt": "2022-02-06T06:21:15.525Z",
  "devdoc": {
    "kind": "dev",
    "methods": {},
    "version": 1
  },
  "userdoc": {
    "kind": "user",
    "methods": {},
    "version": 1
  }
}