{
  "contractName": "FanDonation",
  "abi": [
    {
      "inputs": [
        {
          "internalType": "address",
          "name": "_lendingPoolAddressesProvider",
          "type": "address"
        }
      ],
      "stateMutability": "nonpayable",
      "type": "constructor"
    },
    {
      "anonymous": false,
      "inputs": [
        {
          "indexed": false,
          "internalType": "bool",
          "name": "success",
          "type": "bool"
        }
      ],
      "name": "DonationCompleted",
      "type": "event"
    },
    {
      "inputs": [
        {
          "internalType": "uint256",
          "name": "amount",
          "type": "uint256"
        },
        {
          "internalType": "address",
          "name": "to",
          "type": "address"
        }
      ],
      "name": "donate",
      "outputs": [],
      "stateMutability": "nonpayable",
      "type": "function"
    }
  ],
  "bytecode": "0x608060405273e22da380ee6b445bb8273c81944adeb6e8450422600260006101000a81548173ffffffffffffffffffffffffffffffffffffffff021916908373ffffffffffffffffffffffffffffffffffffffff1602179055506000600260146101000a81548161ffff021916908361ffff16021790555034801561008357600080fd5b50604051610639380380610639833981810160405260208110156100a657600080fd5b8101908080519060200190929190505050806000806101000a81548173ffffffffffffffffffffffffffffffffffffffff021916908373ffffffffffffffffffffffffffffffffffffffff16021790555060008054906101000a900473ffffffffffffffffffffffffffffffffffffffff1673ffffffffffffffffffffffffffffffffffffffff16630261bf8b6040518163ffffffff1660e01b815260040160206040518083038186803b15801561015d57600080fd5b505afa158015610171573d6000803e3d6000fd5b505050506040513d602081101561018757600080fd5b8101908080519060200190929190505050600160006101000a81548173ffffffffffffffffffffffffffffffffffffffff021916908373ffffffffffffffffffffffffffffffffffffffff16021790555050610451806101e86000396000f3fe608060405234801561001057600080fd5b506004361061002b5760003560e01c80638004f9fa14610030575b600080fd5b61007c6004803603604081101561004657600080fd5b8101908080359060200190929190803573ffffffffffffffffffffffffffffffffffffffff16906020019092919050505061007e565b005b600082116100d7576040517f08c379a00000000000000000000000000000000000000000000000000000000081526004018080602001828103825260218152602001806103fb6021913960400191505060405180910390fd5b600260009054906101000a900473ffffffffffffffffffffffffffffffffffffffff1673ffffffffffffffffffffffffffffffffffffffff166323b872dd3330856040518463ffffffff1660e01b8152600401808473ffffffffffffffffffffffffffffffffffffffff1681526020018373ffffffffffffffffffffffffffffffffffffffff1681526020018281526020019350505050602060405180830381600087803b15801561018857600080fd5b505af115801561019c573d6000803e3d6000fd5b505050506040513d60208110156101b257600080fd5b810190808051906020019092919050505050600260009054906101000a900473ffffffffffffffffffffffffffffffffffffffff1673ffffffffffffffffffffffffffffffffffffffff166339509351600160009054906101000a900473ffffffffffffffffffffffffffffffffffffffff16846040518363ffffffff1660e01b8152600401808373ffffffffffffffffffffffffffffffffffffffff16815260200182815260200192505050602060405180830381600087803b15801561027957600080fd5b505af115801561028d573d6000803e3d6000fd5b505050506040513d60208110156102a357600080fd5b810190808051906020019092919050505050600160009054906101000a900473ffffffffffffffffffffffffffffffffffffffff1673ffffffffffffffffffffffffffffffffffffffff1663e8eda9df600260009054906101000a900473ffffffffffffffffffffffffffffffffffffffff168484600260149054906101000a900461ffff166040518563ffffffff1660e01b8152600401808573ffffffffffffffffffffffffffffffffffffffff1681526020018481526020018373ffffffffffffffffffffffffffffffffffffffff1681526020018261ffff168152602001945050505050600060405180830381600087803b1580156103a457600080fd5b505af11580156103b8573d6000803e3d6000fd5b505050507f6bb13e996ede9cfab4ed2d378f5917be7932cd2c66774b00dae2ab2c414d505a600160405180821515815260200191505060405180910390a1505056fe416d6f756e74206e6565647320746f2062652067726561746572207468616e2030a264697066735822122052b03ba87cd8dac53f981c121a4491e4924c7f02c4eb8b4150bf45475c5cb5ad64736f6c634300060c0033",
  "immutableReferences": {},
  "source": "// SPDX-License-Identifier: agpl-3.0\n\npragma solidity ^0.6.0;\n\nimport \"@openzeppelin/contracts/token/ERC20/ERC20.sol\";\n\nimport \"@aave/protocol-v2/contracts/interfaces/ILendingPool.sol\";\nimport \"@aave/protocol-v2/contracts/interfaces/ILendingPoolAddressesProvider.sol\";\n\ncontract FanDonation {\n    ILendingPoolAddressesProvider addressesProvider;\n    ILendingPool lendingPool;\n\n    // USDC Address on Kovan\n    ERC20 usdc = ERC20(0xe22da380ee6B445bb8273C81944ADEB6E8450422);\n    // Referral program for AAVE (https://docs.aave.com/developers/referral-program)\n    uint16 referralCode = 0;\n\n    // Constructor takes the address of the AAVE protocol addresses provider. Should not change once deployed.\n    // (https://docs.aave.com/developers/deployed-contracts)\n    constructor(address _lendingPoolAddressesProvider) public {\n        addressesProvider = ILendingPoolAddressesProvider(\n            _lendingPoolAddressesProvider\n        );\n        lendingPool = ILendingPool(addressesProvider.getLendingPool());\n    }\n\n    // Signals to the front end whether or not the donation was successful\n    event DonationCompleted(bool success);\n\n    function donate(uint256 amount, address to) external {\n        require(amount > 0, \"Amount needs to be greater than 0\");\n\n        // Transfer USDC to this contract\n        usdc.transferFrom(msg.sender, address(this), amount);\n\n        // Approve contract to deposit it into the lendingPool\n        usdc.increaseAllowance(address(lendingPool), amount);\n\n        // Actually deposit into the lendingPool on behalf of the creator\n        lendingPool.deposit(address(usdc), amount, to, referralCode);\n\n        emit DonationCompleted(true);\n    }\n}\n",
  "sourcePath": "/Users/prasanna/Documents/code/opensource/blossym/contracts/FanDonation.sol",
  "compiler": {
    "name": "solc",
    "version": "0.6.12+commit.27d51765.Emscripten.clang"
  },
  "schemaVersion": "3.4.4",
  "updatedAt": "2022-02-06T06:21:15.534Z",
  "devdoc": {
    "kind": "dev",
    "methods": {},
    "version": 1
  },
  "userdoc": {
    "kind": "user",
    "methods": {},
    "version": 1
  }
}