{
  "contractName": "FanProxy",
  "abi": [
    {
      "inputs": [
        {
          "internalType": "address",
          "name": "fanSwapAddress",
          "type": "address"
        },
        {
          "internalType": "address",
          "name": "fanDonationAddress",
          "type": "address"
        }
      ],
      "stateMutability": "nonpayable",
      "type": "constructor"
    },
    {
      "inputs": [
        {
          "internalType": "address",
          "name": "to",
          "type": "address"
        }
      ],
      "name": "swapAndDonateETH",
      "outputs": [],
      "stateMutability": "payable",
      "type": "function"
    }
  ],
  "bytecode": "0x60c060405273e22da380ee6b445bb8273c81944adeb6e84504226000806101000a81548173ffffffffffffffffffffffffffffffffffffffff021916908373ffffffffffffffffffffffffffffffffffffffff16021790555034801561006457600080fd5b506040516105b83803806105b88339818101604052604081101561008757600080fd5b8101908080519060200190929190805190602001909291905050508173ffffffffffffffffffffffffffffffffffffffff1660808173ffffffffffffffffffffffffffffffffffffffff1660601b815250508073ffffffffffffffffffffffffffffffffffffffff1660a08173ffffffffffffffffffffffffffffffffffffffff1660601b81525050505060805160601c60a05160601c61047961013f600039806102e7528061039852508060df52506104796000f3fe60806040526004361061001e5760003560e01c8063e6b8700f14610023575b600080fd5b6100656004803603602081101561003957600080fd5b81019080803573ffffffffffffffffffffffffffffffffffffffff169060200190929190505050610067565b005b600034116100dd576040517f08c379a000000000000000000000000000000000000000000000000000000000815260040180806020018281038252601c8152602001807f43616e6e6f74207377617020616e6420646f6e6174652030204554480000000081525060200191505060405180910390fd5b7f000000000000000000000000000000000000000000000000000000000000000073ffffffffffffffffffffffffffffffffffffffff1663d2d7ab0d346040518263ffffffff1660e01b81526004016000604051808303818588803b15801561014557600080fd5b505af1158015610159573d6000803e3d6000fd5b505050505060008060009054906101000a900473ffffffffffffffffffffffffffffffffffffffff1673ffffffffffffffffffffffffffffffffffffffff166370a08231306040518263ffffffff1660e01b8152600401808273ffffffffffffffffffffffffffffffffffffffff16815260200191505060206040518083038186803b1580156101e857600080fd5b505afa1580156101fc573d6000803e3d6000fd5b505050506040513d602081101561021257600080fd5b8101908080519060200190929190505050905061022f8183610233565b5050565b600082116102a9576040517f08c379a00000000000000000000000000000000000000000000000000000000081526004018080602001828103825260148152602001807f43616e6e6f7420646f6e6174652030205553444300000000000000000000000081525060200191505060405180910390fd5b60008054906101000a900473ffffffffffffffffffffffffffffffffffffffff1673ffffffffffffffffffffffffffffffffffffffff1663395093517f0000000000000000000000000000000000000000000000000000000000000000846040518363ffffffff1660e01b8152600401808373ffffffffffffffffffffffffffffffffffffffff16815260200182815260200192505050602060405180830381600087803b15801561035a57600080fd5b505af115801561036e573d6000803e3d6000fd5b505050506040513d602081101561038457600080fd5b8101908080519060200190929190505050507f000000000000000000000000000000000000000000000000000000000000000073ffffffffffffffffffffffffffffffffffffffff16638004f9fa83836040518363ffffffff1660e01b8152600401808381526020018273ffffffffffffffffffffffffffffffffffffffff16815260200192505050600060405180830381600087803b15801561042757600080fd5b505af115801561043b573d6000803e3d6000fd5b50505050505056fea2646970667358221220f7e295ad5ac1438bf7f95d83b01a6993785cd1007f0c994937f0758d96ca4b3f64736f6c634300060c0033",
  "immutableReferences": {
    "2093": [
      {
        "length": 32,
        "start": 223
      }
    ],
    "2095": [
      {
        "length": 32,
        "start": 743
      },
      {
        "length": 32,
        "start": 920
      }
    ]
  },
  "source": "// SPDX-License-Identifier: MIT\npragma solidity ^0.6.0;\n\nimport \"@openzeppelin/contracts/token/ERC20/ERC20.sol\";\nimport \"./FanDonation.sol\";\nimport \"./FanSwap.sol\";\n\ncontract FanProxy {\n    // USDC address compatible with Aave for aUSDC.\n    address private constant USDC_KOVAN_ADDRESS =\n        0xe22da380ee6B445bb8273C81944ADEB6E8450422;\n\n    ERC20 private usdc = ERC20(USDC_KOVAN_ADDRESS);\n\n    FanSwap private immutable fanSwap;\n    FanDonation private immutable fanDonation;\n\n    constructor(address fanSwapAddress, address fanDonationAddress) public {\n        fanSwap = FanSwap(fanSwapAddress);\n        fanDonation = FanDonation(fanDonationAddress);\n    }\n\n    function swapAndDonateETH(address to) external payable {\n        require(msg.value > 0, \"Cannot swap and donate 0 ETH\");\n\n        // Swaps ETH for USDC. Swapped USDC is returned to this contract, which\n        // will be donated within the same transaction.\n        fanSwap.swapToUSDC{value: msg.value}();\n\n        uint256 swappedUSDCAmount = usdc.balanceOf(address(this));\n        _donateUSDC(swappedUSDCAmount, to);\n    }\n\n    function _donateUSDC(uint256 amount, address to) private {\n        require(amount > 0, \"Cannot donate 0 USDC\");\n        usdc.increaseAllowance(address(fanDonation), amount);\n        fanDonation.donate(amount, to);\n    }\n}\n",
  "sourcePath": "/Users/prasanna/Documents/code/opensource/blossym/contracts/FanProxy.sol",
  "compiler": {
    "name": "solc",
    "version": "0.6.12+commit.27d51765.Emscripten.clang"
  },
  "schemaVersion": "3.4.4",
  "updatedAt": "2022-02-06T06:21:15.539Z",
  "devdoc": {
    "kind": "dev",
    "methods": {},
    "version": 1
  },
  "userdoc": {
    "kind": "user",
    "methods": {},
    "version": 1
  }
}