{
  "contractName": "FanSwap",
  "abi": [
    {
      "inputs": [],
      "name": "swapToUSDC",
      "outputs": [],
      "stateMutability": "payable",
      "type": "function"
    }
  ],
  "bytecode": "0x6080604052737a250d5630b4cf539739df2c5dacb4c659f2488d6000806101000a81548173ffffffffffffffffffffffffffffffffffffffff021916908373ffffffffffffffffffffffffffffffffffffffff16021790555073e22da380ee6b445bb8273c81944adeb6e8450422600160006101000a81548173ffffffffffffffffffffffffffffffffffffffff021916908373ffffffffffffffffffffffffffffffffffffffff1602179055503480156100b957600080fd5b5061043e806100c96000396000f3fe60806040526004361061001e5760003560e01c8063d2d7ab0d14610023575b600080fd5b61002b61002d565b005b600034116100a3576040517f08c379a00000000000000000000000000000000000000000000000000000000081526004018080602001828103825260118152602001807f43616e6e6f74207377617020302045544800000000000000000000000000000081525060200191505060405180910390fd5b600080600f4201905060008054906101000a900473ffffffffffffffffffffffffffffffffffffffff1673ffffffffffffffffffffffffffffffffffffffff16637ff36ab534846100f2610270565b33866040518663ffffffff1660e01b815260040180858152602001806020018473ffffffffffffffffffffffffffffffffffffffff168152602001838152602001828103825285818151815260200191508051906020019060200280838360005b8381101561016e578082015181840152602081019050610153565b50505050905001955050505050506000604051808303818588803b15801561019557600080fd5b505af11580156101a9573d6000803e3d6000fd5b50505050506040513d6000823e3d601f19601f8201168201806040525060208110156101d457600080fd5b81019080805160405193929190846401000000008211156101f457600080fd5b8382019150602082018581111561020a57600080fd5b825186602082028301116401000000008211171561022757600080fd5b8083526020830192505050908051906020019060200280838360005b8381101561025e578082015181840152602081019050610243565b50505050905001604052505050505050565b606080600267ffffffffffffffff8111801561028b57600080fd5b506040519080825280602002602001820160405280156102ba5781602001602082028036833780820191505090505b50905060008054906101000a900473ffffffffffffffffffffffffffffffffffffffff1673ffffffffffffffffffffffffffffffffffffffff1663ad5c46486040518163ffffffff1660e01b815260040160206040518083038186803b15801561032357600080fd5b505afa158015610337573d6000803e3d6000fd5b505050506040513d602081101561034d57600080fd5b81019080805190602001909291905050508160008151811061036b57fe5b602002602001019073ffffffffffffffffffffffffffffffffffffffff16908173ffffffffffffffffffffffffffffffffffffffff168152505073e22da380ee6b445bb8273c81944adeb6e8450422816001815181106103c757fe5b602002602001019073ffffffffffffffffffffffffffffffffffffffff16908173ffffffffffffffffffffffffffffffffffffffff1681525050809150509056fea2646970667358221220a1fe814b5fb0b4becb4b7a637eeb1d6b3cdf353aaf524b5a3596b4364726c3ac64736f6c634300060c0033",
  "immutableReferences": {},
  "source": "// SPDX-License-Identifier: MIT\npragma solidity ^0.6.0;\n\nimport \"@openzeppelin/contracts/token/ERC20/IERC20.sol\";\nimport \"@uniswap/v2-periphery/contracts/interfaces/IUniswapV2Router02.sol\";\n\ncontract FanSwap {\n    // Uniswap address on mainnet and testnets.\n    address private constant UNISWAP_ROUTER_ADDRESS =\n        0x7a250d5630B4cF539739dF2C5dAcb4c659F2488D;\n    // USDC address compatible with Aave for aUSDC.\n    address private constant USDC_KOVAN_ADDRESS =\n        0xe22da380ee6B445bb8273C81944ADEB6E8450422;\n\n    IUniswapV2Router02 private uniswapRouter =\n        IUniswapV2Router02(UNISWAP_ROUTER_ADDRESS);\n    IERC20 private usdc = IERC20(USDC_KOVAN_ADDRESS);\n\n    function swapToUSDC() external payable {\n        require(msg.value > 0, \"Cannot swap 0 ETH\");\n\n        // Minimum amount of USDC from the swap to be considered successful.\n        uint256 amountOutMin = 0;\n\n        // Approximately now for convenience on testnets.\n        // On mainnet, this should be passed from frontend.\n        uint256 deadline = block.timestamp + 15;\n\n        // Swaps ETH from sender to USDC and sends swapped USDC back to sender.\n        uniswapRouter.swapExactETHForTokens{value: msg.value}(\n            amountOutMin,\n            getPathForETHToUSDC(),\n            msg.sender,\n            deadline\n        );\n    }\n\n    function getPathForETHToUSDC() private view returns (address[] memory) {\n        address[] memory path = new address[](2);\n        path[0] = uniswapRouter.WETH();\n        path[1] = USDC_KOVAN_ADDRESS;\n        return path;\n    }\n}\n",
  "sourcePath": "/Users/prasanna/Documents/code/opensource/blossym/contracts/FanSwap.sol",
  "compiler": {
    "name": "solc",
    "version": "0.6.12+commit.27d51765.Emscripten.clang"
  },
  "schemaVersion": "3.4.4",
  "updatedAt": "2022-02-06T06:21:15.543Z",
  "devdoc": {
    "kind": "dev",
    "methods": {},
    "version": 1
  },
  "userdoc": {
    "kind": "user",
    "methods": {},
    "version": 1
  }
}