{
  "contractName": "Migrations",
  "abi": [
    {
      "inputs": [],
      "stateMutability": "nonpayable",
      "type": "constructor"
    },
    {
      "inputs": [],
      "name": "lastCompletedMigration",
      "outputs": [
        {
          "internalType": "uint256",
          "name": "",
          "type": "uint256"
        }
      ],
      "stateMutability": "view",
      "type": "function",
      "constant": true
    },
    {
      "inputs": [],
      "name": "owner",
      "outputs": [
        {
          "internalType": "address",
          "name": "",
          "type": "address"
        }
      ],
      "stateMutability": "view",
      "type": "function",
      "constant": true
    },
    {
      "inputs": [
        {
          "internalType": "uint256",
          "name": "completed",
          "type": "uint256"
        }
      ],
      "name": "setCompleted",
      "outputs": [],
      "stateMutability": "nonpayable",
      "type": "function"
    }
  ],
  "bytecode": "0x608060405234801561001057600080fd5b50336000806101000a81548173ffffffffffffffffffffffffffffffffffffffff021916908373ffffffffffffffffffffffffffffffffffffffff160217905550610185806100606000396000f3fe608060405234801561001057600080fd5b50600436106100415760003560e01c80638da5cb5b14610046578063fbdbad3c1461007a578063fdacd57614610098575b600080fd5b61004e6100c6565b604051808273ffffffffffffffffffffffffffffffffffffffff16815260200191505060405180910390f35b6100826100ea565b6040518082815260200191505060405180910390f35b6100c4600480360360208110156100ae57600080fd5b81019080803590602001909291905050506100f0565b005b60008054906101000a900473ffffffffffffffffffffffffffffffffffffffff1681565b60015481565b60008054906101000a900473ffffffffffffffffffffffffffffffffffffffff1673ffffffffffffffffffffffffffffffffffffffff163373ffffffffffffffffffffffffffffffffffffffff16141561014c57806001819055505b5056fea264697066735822122041c7968a01ea35ab6f44354b9b2a08ba1ce285353fdcb718194c9020a94d02c664736f6c634300060c0033",
  "immutableReferences": {},
  "source": "// SPDX-License-Identifier: MIT\npragma solidity >=0.5.28 <0.8.0;\n\ncontract Migrations {\n    address public owner;\n    uint256 public lastCompletedMigration;\n\n    modifier restricted() {\n        if (msg.sender == owner) _;\n    }\n\n    constructor() public {\n        owner = msg.sender;\n    }\n\n    function setCompleted(uint256 completed) public restricted {\n        lastCompletedMigration = completed;\n    }\n}\n",
  "sourcePath": "/Users/prasanna/Documents/code/opensource/blossym/contracts/Migrations.sol",
  "compiler": {
    "name": "solc",
    "version": "0.6.12+commit.27d51765.Emscripten.clang"
  },
  "schemaVersion": "3.4.4",
  "updatedAt": "2022-02-06T06:02:41.410Z",
  "networkType": "ethereum",
  "devdoc": {
    "kind": "dev",
    "methods": {},
    "version": 1
  },
  "userdoc": {
    "kind": "user",
    "methods": {},
    "version": 1
  }
}